{
  "_format": "hh-sol-artifact-1",
  "contractName": "Editions",
  "sourceName": "contracts/Editions.sol",
  "abi": [
    {
      "inputs": [
        {
          "internalType": "string",
          "name": "baseURI_",
          "type": "string"
        }
      ],
      "stateMutability": "nonpayable",
      "type": "constructor"
    },
    {
      "anonymous": false,
      "inputs": [
        {
          "indexed": true,
          "internalType": "address",
          "name": "owner",
          "type": "address"
        },
        {
          "indexed": true,
          "internalType": "address",
          "name": "approved",
          "type": "address"
        },
        {
          "indexed": true,
          "internalType": "uint256",
          "name": "tokenId",
          "type": "uint256"
        }
      ],
      "name": "Approval",
      "type": "event"
    },
    {
      "anonymous": false,
      "inputs": [
        {
          "indexed": true,
          "internalType": "address",
          "name": "owner",
          "type": "address"
        },
        {
          "indexed": true,
          "internalType": "address",
          "name": "operator",
          "type": "address"
        },
        {
          "indexed": false,
          "internalType": "bool",
          "name": "approved",
          "type": "bool"
        }
      ],
      "name": "ApprovalForAll",
      "type": "event"
    },
    {
      "anonymous": false,
      "inputs": [
        {
          "indexed": false,
          "internalType": "uint256",
          "name": "quantity",
          "type": "uint256"
        },
        {
          "indexed": false,
          "internalType": "uint256",
          "name": "price",
          "type": "uint256"
        },
        {
          "indexed": false,
          "internalType": "address",
          "name": "fundingRecipient",
          "type": "address"
        },
        {
          "indexed": true,
          "internalType": "uint256",
          "name": "editionId",
          "type": "uint256"
        }
      ],
      "name": "EditionCreated",
      "type": "event"
    },
    {
      "anonymous": false,
      "inputs": [
        {
          "indexed": true,
          "internalType": "uint256",
          "name": "editionId",
          "type": "uint256"
        },
        {
          "indexed": true,
          "internalType": "uint256",
          "name": "tokenId",
          "type": "uint256"
        },
        {
          "indexed": false,
          "internalType": "uint256",
          "name": "numSold",
          "type": "uint256"
        },
        {
          "indexed": true,
          "internalType": "address",
          "name": "buyer",
          "type": "address"
        }
      ],
      "name": "EditionPurchased",
      "type": "event"
    },
    {
      "anonymous": false,
      "inputs": [
        {
          "indexed": true,
          "internalType": "address",
          "name": "from",
          "type": "address"
        },
        {
          "indexed": true,
          "internalType": "address",
          "name": "to",
          "type": "address"
        },
        {
          "indexed": true,
          "internalType": "uint256",
          "name": "tokenId",
          "type": "uint256"
        }
      ],
      "name": "Transfer",
      "type": "event"
    },
    {
      "inputs": [
        {
          "internalType": "address",
          "name": "to",
          "type": "address"
        },
        {
          "internalType": "uint256",
          "name": "tokenId",
          "type": "uint256"
        }
      ],
      "name": "approve",
      "outputs": [],
      "stateMutability": "nonpayable",
      "type": "function"
    },
    {
      "inputs": [
        {
          "internalType": "address",
          "name": "owner",
          "type": "address"
        }
      ],
      "name": "balanceOf",
      "outputs": [
        {
          "internalType": "uint256",
          "name": "",
          "type": "uint256"
        }
      ],
      "stateMutability": "view",
      "type": "function"
    },
    {
      "inputs": [
        {
          "internalType": "uint256",
          "name": "editionId",
          "type": "uint256"
        }
      ],
      "name": "buyEdition",
      "outputs": [],
      "stateMutability": "payable",
      "type": "function"
    },
    {
      "inputs": [],
      "name": "contractURI",
      "outputs": [
        {
          "internalType": "string",
          "name": "",
          "type": "string"
        }
      ],
      "stateMutability": "view",
      "type": "function"
    },
    {
      "inputs": [
        {
          "internalType": "uint256",
          "name": "quantity",
          "type": "uint256"
        },
        {
          "internalType": "uint256",
          "name": "price",
          "type": "uint256"
        },
        {
          "internalType": "address payable",
          "name": "fundingRecipient",
          "type": "address"
        }
      ],
      "name": "createEdition",
      "outputs": [],
      "stateMutability": "nonpayable",
      "type": "function"
    },
    {
      "inputs": [
        {
          "internalType": "uint256",
          "name": "",
          "type": "uint256"
        }
      ],
      "name": "editions",
      "outputs": [
        {
          "internalType": "uint256",
          "name": "quantity",
          "type": "uint256"
        },
        {
          "internalType": "uint256",
          "name": "price",
          "type": "uint256"
        },
        {
          "internalType": "address payable",
          "name": "fundingRecipient",
          "type": "address"
        },
        {
          "internalType": "uint256",
          "name": "numSold",
          "type": "uint256"
        }
      ],
      "stateMutability": "view",
      "type": "function"
    },
    {
      "inputs": [
        {
          "internalType": "uint256",
          "name": "tokenId",
          "type": "uint256"
        }
      ],
      "name": "getApproved",
      "outputs": [
        {
          "internalType": "address",
          "name": "",
          "type": "address"
        }
      ],
      "stateMutability": "view",
      "type": "function"
    },
    {
      "inputs": [
        {
          "internalType": "address",
          "name": "owner",
          "type": "address"
        },
        {
          "internalType": "address",
          "name": "operator",
          "type": "address"
        }
      ],
      "name": "isApprovedForAll",
      "outputs": [
        {
          "internalType": "bool",
          "name": "",
          "type": "bool"
        }
      ],
      "stateMutability": "view",
      "type": "function"
    },
    {
      "inputs": [],
      "name": "name",
      "outputs": [
        {
          "internalType": "string",
          "name": "",
          "type": "string"
        }
      ],
      "stateMutability": "view",
      "type": "function"
    },
    {
      "inputs": [
        {
          "internalType": "uint256",
          "name": "tokenId",
          "type": "uint256"
        }
      ],
      "name": "ownerOf",
      "outputs": [
        {
          "internalType": "address",
          "name": "",
          "type": "address"
        }
      ],
      "stateMutability": "view",
      "type": "function"
    },
    {
      "inputs": [
        {
          "internalType": "address",
          "name": "from",
          "type": "address"
        },
        {
          "internalType": "address",
          "name": "to",
          "type": "address"
        },
        {
          "internalType": "uint256",
          "name": "tokenId",
          "type": "uint256"
        }
      ],
      "name": "safeTransferFrom",
      "outputs": [],
      "stateMutability": "nonpayable",
      "type": "function"
    },
    {
      "inputs": [
        {
          "internalType": "address",
          "name": "from",
          "type": "address"
        },
        {
          "internalType": "address",
          "name": "to",
          "type": "address"
        },
        {
          "internalType": "uint256",
          "name": "tokenId",
          "type": "uint256"
        },
        {
          "internalType": "bytes",
          "name": "_data",
          "type": "bytes"
        }
      ],
      "name": "safeTransferFrom",
      "outputs": [],
      "stateMutability": "nonpayable",
      "type": "function"
    },
    {
      "inputs": [
        {
          "internalType": "address",
          "name": "operator",
          "type": "address"
        },
        {
          "internalType": "bool",
          "name": "approved",
          "type": "bool"
        }
      ],
      "name": "setApprovalForAll",
      "outputs": [],
      "stateMutability": "nonpayable",
      "type": "function"
    },
    {
      "inputs": [
        {
          "internalType": "bytes4",
          "name": "interfaceId",
          "type": "bytes4"
        }
      ],
      "name": "supportsInterface",
      "outputs": [
        {
          "internalType": "bool",
          "name": "",
          "type": "bool"
        }
      ],
      "stateMutability": "view",
      "type": "function"
    },
    {
      "inputs": [],
      "name": "symbol",
      "outputs": [
        {
          "internalType": "string",
          "name": "",
          "type": "string"
        }
      ],
      "stateMutability": "view",
      "type": "function"
    },
    {
      "inputs": [
        {
          "internalType": "uint256",
          "name": "",
          "type": "uint256"
        }
      ],
      "name": "tokenToEdition",
      "outputs": [
        {
          "internalType": "uint256",
          "name": "",
          "type": "uint256"
        }
      ],
      "stateMutability": "view",
      "type": "function"
    },
    {
      "inputs": [
        {
          "internalType": "uint256",
          "name": "tokenId",
          "type": "uint256"
        }
      ],
      "name": "tokenURI",
      "outputs": [
        {
          "internalType": "string",
          "name": "",
          "type": "string"
        }
      ],
      "stateMutability": "view",
      "type": "function"
    },
    {
      "inputs": [
        {
          "internalType": "address",
          "name": "from",
          "type": "address"
        },
        {
          "internalType": "address",
          "name": "to",
          "type": "address"
        },
        {
          "internalType": "uint256",
          "name": "tokenId",
          "type": "uint256"
        }
      ],
      "name": "transferFrom",
      "outputs": [],
      "stateMutability": "nonpayable",
      "type": "function"
    },
    {
      "inputs": [
        {
          "internalType": "uint256",
          "name": "editionId",
          "type": "uint256"
        }
      ],
      "name": "withdrawFunds",
      "outputs": [],
      "stateMutability": "nonpayable",
      "type": "function"
    },
    {
      "inputs": [
        {
          "internalType": "uint256",
          "name": "",
          "type": "uint256"
        }
      ],
      "name": "withdrawnForEdition",
      "outputs": [
        {
          "internalType": "uint256",
          "name": "",
          "type": "uint256"
        }
      ],
      "stateMutability": "view",
      "type": "function"
    }
  ],
  "bytecode": "0x608060405260016009553480156200001657600080fd5b506040516200203b3803806200203b8339810160408190526200003991620000fc565b80516200004e90600490602084019062000056565b505062000225565b8280546200006490620001d2565b90600052602060002090601f016020900481019282620000885760008555620000d3565b82601f10620000a357805160ff1916838001178555620000d3565b82800160010185558215620000d3579182015b82811115620000d3578251825591602001919060010190620000b6565b50620000e1929150620000e5565b5090565b5b80821115620000e15760008155600101620000e6565b600060208083850312156200010f578182fd5b82516001600160401b038082111562000126578384fd5b818501915085601f8301126200013a578384fd5b8151818111156200014f576200014f6200020f565b604051601f8201601f19908116603f011681019083821181831017156200017a576200017a6200020f565b81604052828152888684870101111562000192578687fd5b8693505b82841015620001b5578484018601518185018701529285019262000196565b82841115620001c657868684830101525b98975050505050505050565b600181811c90821680620001e757607f821691505b602082108114156200020957634e487b7160e01b600052602260045260246000fd5b50919050565b634e487b7160e01b600052604160045260246000fd5b611e0680620002356000396000f3fe60806040526004361061015f5760003560e01c806370a08231116100c0578063bd8616ec11610074578063d3bb052811610059578063d3bb05281461047d578063e8a3d485146104aa578063e985e9c5146104bf57600080fd5b8063bd8616ec1461044a578063c87b56dd1461045d57600080fd5b806395d89b41116100a557806395d89b41146103c1578063a22cb4651461040a578063b88d4fde1461042a57600080fd5b806370a082311461038157806383edd80e146103a157600080fd5b806323b872dd1161011757806342842e0e116100fc57806342842e0e14610306578063602787ed146103265780636352211e1461036157600080fd5b806323b872dd14610269578063279c806e1461028957600080fd5b8063081812fc11610148578063081812fc146101ef578063095ea7b314610227578063155dd5ee1461024957600080fd5b806301ffc9a71461016457806306fdde0314610199575b600080fd5b34801561017057600080fd5b5061018461017f366004611a55565b610508565b60405190151581526020015b60405180910390f35b3480156101a557600080fd5b506101e26040518060400160405280600f81526020017f4d6972726f722045646974696f6e73000000000000000000000000000000000081525081565b6040516101909190611c78565b3480156101fb57600080fd5b5061020f61020a366004611a8d565b6105ed565b6040516001600160a01b039091168152602001610190565b34801561023357600080fd5b50610247610242366004611a2a565b610698565b005b34801561025557600080fd5b50610247610264366004611a8d565b6107e8565b34801561027557600080fd5b506102476102843660046118e0565b610873565b34801561029557600080fd5b506102d76102a4366004611a8d565b6005602052600090815260409020805460018201546002830154600390930154919290916001600160a01b039091169084565b604051610190949392919093845260208401929092526001600160a01b03166040830152606082015260800190565b34801561031257600080fd5b506102476103213660046118e0565b6108fa565b34801561033257600080fd5b50610353610341366004611a8d565b60066020526000908152604090205481565b604051908152602001610190565b34801561036d57600080fd5b5061020f61037c366004611a8d565b610915565b34801561038d57600080fd5b5061035361039c366004611885565b6109a0565b3480156103ad57600080fd5b506102476103bc366004611aa5565b610a3a565b3480156103cd57600080fd5b506101e26040518060400160405280600881526020017f45444954494f4e5300000000000000000000000000000000000000000000000081525081565b34801561041657600080fd5b506102476104253660046119f9565b610b0d565b34801561043657600080fd5b50610247610445366004611920565b610bd2565b610247610458366004611a8d565b610c60565b34801561046957600080fd5b506101e2610478366004611a8d565b610e6d565b34801561048957600080fd5b50610353610498366004611a8d565b60076020526000908152604090205481565b3480156104b657600080fd5b506101e2610f17565b3480156104cb57600080fd5b506101846104da3660046118a8565b6001600160a01b03918216600090815260036020908152604080832093909416825291909152205460ff1690565b60007fffffffff0000000000000000000000000000000000000000000000000000000082167f80ac58cd00000000000000000000000000000000000000000000000000000000148061059b57507fffffffff0000000000000000000000000000000000000000000000000000000082167f5b5e139f00000000000000000000000000000000000000000000000000000000145b806105e757507f01ffc9a7000000000000000000000000000000000000000000000000000000007fffffffff000000000000000000000000000000000000000000000000000000008316145b92915050565b6000818152602081905260408120546001600160a01b031661067c5760405162461bcd60e51b815260206004820152602c60248201527f4552433732313a20617070726f76656420717565727920666f72206e6f6e657860448201527f697374656e7420746f6b656e000000000000000000000000000000000000000060648201526084015b60405180910390fd5b506000908152600260205260409020546001600160a01b031690565b60006106a382610915565b9050806001600160a01b0316836001600160a01b0316141561072d5760405162461bcd60e51b815260206004820152602160248201527f4552433732313a20617070726f76616c20746f2063757272656e74206f776e6560448201527f72000000000000000000000000000000000000000000000000000000000000006064820152608401610673565b336001600160a01b038216148061076757506001600160a01b038116600090815260036020908152604080832033845290915290205460ff165b6107d95760405162461bcd60e51b815260206004820152603860248201527f4552433732313a20617070726f76652063616c6c6572206973206e6f74206f7760448201527f6e6572206e6f7220617070726f76656420666f7220616c6c00000000000000006064820152608401610673565b6107e38383610f3f565b505050565b6000818152600760209081526040808320546005909252822060038101546001909101546108169190611cb7565b6108209190611cd6565b9050806007600084815260200190815260200160002060008282546108459190611c8b565b909155505060008281526005602052604090206002015461086f906001600160a01b031682610fba565b5050565b61087d33826110d3565b6108ef5760405162461bcd60e51b815260206004820152603160248201527f4552433732313a207472616e736665722063616c6c6572206973206e6f74206f60448201527f776e6572206e6f7220617070726f7665640000000000000000000000000000006064820152608401610673565b6107e38383836111db565b6107e383838360405180602001604052806000815250610bd2565b6000818152602081905260408120546001600160a01b0316806105e75760405162461bcd60e51b815260206004820152602960248201527f4552433732313a206f776e657220717565727920666f72206e6f6e657869737460448201527f656e7420746f6b656e00000000000000000000000000000000000000000000006064820152608401610673565b60006001600160a01b038216610a1e5760405162461bcd60e51b815260206004820152602a60248201527f4552433732313a2062616c616e636520717565727920666f7220746865207a6560448201527f726f2061646472657373000000000000000000000000000000000000000000006064820152608401610673565b506001600160a01b031660009081526001602052604090205490565b6040805160808101825284815260208082018581526001600160a01b038581168486018181526000606080880182815260098054845260058952928a90209851895595516001890155915160028801805473ffffffffffffffffffffffffffffffffffffffff191691909516179093559251600390950194909455548451888152928301879052938201929092527fbaf1f6ab5aa5406df2735e70c52585e630f9744f4ecdedd8b619e983e927f0b6910160405180910390a260098054906000610b0383611d19565b9190505550505050565b6001600160a01b038216331415610b665760405162461bcd60e51b815260206004820152601960248201527f4552433732313a20617070726f766520746f2063616c6c6572000000000000006044820152606401610673565b3360008181526003602090815260408083206001600160a01b03871680855290835292819020805460ff191686151590811790915590519081529192917f17307eab39ab6107e8899845ad3d59bd9653f200f220920489ca2b5937696c31910160405180910390a35050565b610bdc33836110d3565b610c4e5760405162461bcd60e51b815260206004820152603160248201527f4552433732313a207472616e736665722063616c6c6572206973206e6f74206f60448201527f776e6572206e6f7220617070726f7665640000000000000000000000000000006064820152608401610673565b610c5a848484846113b9565b50505050565b600081815260056020526040902054610cbb5760405162461bcd60e51b815260206004820152601660248201527f45646974696f6e20646f6573206e6f74206578697374000000000000000000006044820152606401610673565b6000818152600560205260409020805460039091015410610d445760405162461bcd60e51b815260206004820152602160248201527f546869732065646974696f6e20697320616c726561647920736f6c64206f757460448201527f2e000000000000000000000000000000000000000000000000000000000000006064820152608401610673565b6000818152600560205260409020600101543414610dca5760405162461bcd60e51b815260206004820152602960248201527f4d7573742073656e6420656e6f75676820746f2070757263686173652074686560448201527f2065646974696f6e2e00000000000000000000000000000000000000000000006064820152608401610673565b6000818152600560205260408120600301805491610de783611d19565b9190505550610df833600854611442565b60088054600090815260066020908152604080832085905592548483526005825291839020600301549251928352339284917ffe1605523c8db5c52bfac30caf272368bb9024d8300042af87869a6827d692f5910160405180910390a460088054906000610e6583611d19565b919050555050565b600081815260066020526040902054606090610ecb5760405162461bcd60e51b815260206004820152601b60248201527f546f6b656e20686173206e6f74206265656e20736f6c642079657400000000006044820152606401610673565b600082815260066020526040902054600490610ee690611593565b610eef84611593565b604051602001610f0193929190611ba1565b6040516020818303038152906040529050919050565b60606004604051602001610f2b9190611c03565b604051602081830303815290604052905090565b6000818152600260205260409020805473ffffffffffffffffffffffffffffffffffffffff19166001600160a01b0384169081179091558190610f8182610915565b6001600160a01b03167f8c5be1e5ebec7d5bd14f71427d1e84f3dd0314c0f7b2291e5b200ac8c7c3b92560405160405180910390a45050565b8047101561100a5760405162461bcd60e51b815260206004820152601d60248201527f496e73756666696369656e742062616c616e636520666f722073656e640000006044820152606401610673565b6000826001600160a01b03168260405160006040518083038185875af1925050503d8060008114611057576040519150601f19603f3d011682016040523d82523d6000602084013e61105c565b606091505b50509050806107e35760405162461bcd60e51b815260206004820152603160248201527f556e61626c6520746f2073656e642076616c75653a20726563697069656e742060448201527f6d617920686176652072657665727465640000000000000000000000000000006064820152608401610673565b6000818152602081905260408120546001600160a01b031661115d5760405162461bcd60e51b815260206004820152602c60248201527f4552433732313a206f70657261746f7220717565727920666f72206e6f6e657860448201527f697374656e7420746f6b656e00000000000000000000000000000000000000006064820152608401610673565b600061116883610915565b9050806001600160a01b0316846001600160a01b031614806111a35750836001600160a01b0316611198846105ed565b6001600160a01b0316145b806111d357506001600160a01b0380821660009081526003602090815260408083209388168352929052205460ff165b949350505050565b826001600160a01b03166111ee82610915565b6001600160a01b03161461126a5760405162461bcd60e51b815260206004820152602960248201527f4552433732313a207472616e73666572206f6620746f6b656e2074686174206960448201527f73206e6f74206f776e00000000000000000000000000000000000000000000006064820152608401610673565b6001600160a01b0382166112e55760405162461bcd60e51b8152602060048201526024808201527f4552433732313a207472616e7366657220746f20746865207a65726f2061646460448201527f72657373000000000000000000000000000000000000000000000000000000006064820152608401610673565b6112f0600082610f3f565b6001600160a01b0383166000908152600160208190526040822080549192909161131b908490611cd6565b90915550506001600160a01b0382166000908152600160208190526040822080549192909161134b908490611c8b565b9091555050600081815260208190526040808220805473ffffffffffffffffffffffffffffffffffffffff19166001600160a01b0386811691821790925591518493918716917fddf252ad1be2c89b69c2b068fc378daa952ba7f163c4a11628f55a4df523b3ef91a4505050565b6113c48484846111db565b6113d0848484846116e1565b610c5a5760405162461bcd60e51b815260206004820152603260248201527f4552433732313a207472616e7366657220746f206e6f6e20455243373231526560448201527f63656976657220696d706c656d656e74657200000000000000000000000000006064820152608401610673565b6001600160a01b0382166114985760405162461bcd60e51b815260206004820181905260248201527f4552433732313a206d696e7420746f20746865207a65726f20616464726573736044820152606401610673565b6000818152602081905260409020546001600160a01b0316156114fd5760405162461bcd60e51b815260206004820152601c60248201527f4552433732313a20746f6b656e20616c7265616479206d696e746564000000006044820152606401610673565b6001600160a01b03821660009081526001602081905260408220805491929091611528908490611c8b565b9091555050600081815260208190526040808220805473ffffffffffffffffffffffffffffffffffffffff19166001600160a01b03861690811790915590518392907fddf252ad1be2c89b69c2b068fc378daa952ba7f163c4a11628f55a4df523b3ef908290a45050565b6060816115d357505060408051808201909152600181527f3000000000000000000000000000000000000000000000000000000000000000602082015290565b8160005b81156115fd57806115e781611d19565b91506115f69050600a83611ca3565b91506115d7565b60008167ffffffffffffffff81111561162657634e487b7160e01b600052604160045260246000fd5b6040519080825280601f01601f191660200182016040528015611650576020820181803683370190505b5090505b84156111d357611665600183611cd6565b9150611672600a86611d34565b61167d906030611c8b565b60f81b8183815181106116a057634e487b7160e01b600052603260045260246000fd5b60200101907effffffffffffffffffffffffffffffffffffffffffffffffffffffffffffff1916908160001a9053506116da600a86611ca3565b9450611654565b6000833b1561187a576040517f150b7a020000000000000000000000000000000000000000000000000000000081526001600160a01b0385169063150b7a0290611735903390899088908890600401611c3c565b602060405180830381600087803b15801561174f57600080fd5b505af192505050801561177f575060408051601f3d908101601f1916820190925261177c91810190611a71565b60015b61182f573d8080156117ad576040519150601f19603f3d011682016040523d82523d6000602084013e6117b2565b606091505b5080516118275760405162461bcd60e51b815260206004820152603260248201527f4552433732313a207472616e7366657220746f206e6f6e20455243373231526560448201527f63656976657220696d706c656d656e74657200000000000000000000000000006064820152608401610673565b805181602001fd5b7fffffffff00000000000000000000000000000000000000000000000000000000167f150b7a02000000000000000000000000000000000000000000000000000000001490506111d3565b506001949350505050565b600060208284031215611896578081fd5b81356118a181611d8a565b9392505050565b600080604083850312156118ba578081fd5b82356118c581611d8a565b915060208301356118d581611d8a565b809150509250929050565b6000806000606084860312156118f4578081fd5b83356118ff81611d8a565b9250602084013561190f81611d8a565b929592945050506040919091013590565b60008060008060808587031215611935578081fd5b843561194081611d8a565b9350602085013561195081611d8a565b925060408501359150606085013567ffffffffffffffff80821115611973578283fd5b818701915087601f830112611986578283fd5b81358181111561199857611998611d74565b604051601f8201601f19908116603f011681019083821181831017156119c0576119c0611d74565b816040528281528a60208487010111156119d8578586fd5b82602086016020830137918201602001949094529598949750929550505050565b60008060408385031215611a0b578182fd5b8235611a1681611d8a565b9150602083013580151581146118d5578182fd5b60008060408385031215611a3c578182fd5b8235611a4781611d8a565b946020939093013593505050565b600060208284031215611a66578081fd5b81356118a181611da2565b600060208284031215611a82578081fd5b81516118a181611da2565b600060208284031215611a9e578081fd5b5035919050565b600080600060608486031215611ab9578283fd5b83359250602084013591506040840135611ad281611d8a565b809150509250925092565b60008151808452611af5816020860160208601611ced565b601f01601f19169290920160200192915050565b8054600090600181811c9080831680611b2357607f831692505b6020808410821415611b4357634e487b7160e01b86526022600452602486fd5b818015611b575760018114611b6857611b95565b60ff19861689528489019650611b95565b60008881526020902060005b86811015611b8d5781548b820152908501908301611b74565b505084890196505b50505050505092915050565b6000611bad8286611b09565b8451611bbd818360208901611ced565b7f2f0000000000000000000000000000000000000000000000000000000000000091019081528351611bf6816001840160208801611ced565b0160010195945050505050565b6000611c0f8284611b09565b7f6d6574616461746100000000000000000000000000000000000000000000000081526008019392505050565b60006001600160a01b03808716835280861660208401525083604083015260806060830152611c6e6080830184611add565b9695505050505050565b6020815260006118a16020830184611add565b60008219821115611c9e57611c9e611d48565b500190565b600082611cb257611cb2611d5e565b500490565b6000816000190483118215151615611cd157611cd1611d48565b500290565b600082821015611ce857611ce8611d48565b500390565b60005b83811015611d08578181015183820152602001611cf0565b83811115610c5a5750506000910152565b6000600019821415611d2d57611d2d611d48565b5060010190565b600082611d4357611d43611d5e565b500690565b634e487b7160e01b600052601160045260246000fd5b634e487b7160e01b600052601260045260246000fd5b634e487b7160e01b600052604160045260246000fd5b6001600160a01b0381168114611d9f57600080fd5b50565b7fffffffff0000000000000000000000000000000000000000000000000000000081168114611d9f57600080fdfea264697066735822122053cf23b88e8209f1f57ea02c093d1ffa798ae7f5a1f57f8af54c635049bbabc864736f6c63430008040033",
  "linkReferences": {},
  "deployedLinkReferences": {}
}